:03000000020451A6
:0C045100787FE4F6D8FD75811402049851
:1005DC00D3EF9400EE940040147D6E7C00ED1D7002
:0D05EC00011CED4C70F7EF1F70E61E80E360
:0105F90022DF
:1005B400C2A07B46AF031BEF70FAD2A0FB30A0159C
:1005C4007F017E001205DC0BEBD3940574809480CC
:0705D40040EB7F00227F01D4
:0105DB0022FD
:0C0534001205B47F017E001205DC7FCCB4
:10054000E4FBFAC2A00513E51370020512EF139243
:10055000A0751200751306E5131513AC1270021581
:10056000124C70F3D2A0EFC313FF0BBB00010AEBD8
:0505700064084A70CE92
:010575002263
:100576007D087C00C2A00FBF0000D2A00FBF000004
:100586000FBF0000A2A0E433C43333335480FBE929
:10059600C3134BF97E007F04EF1FAA0670011E4AA3
:0D05A60070F6ED1D70011CED4C70C9AF0129
:0105B3002225
:080631001205347F440205406C
:080639001205347FBE020540EA
:1005FA00E4FFFE1206311206391205768F11120532
:06060A0076EFFEE511FF92
:0106100022C7
:0A0627003F065B4F666D7D077F6F95
:03064100010800AD
:0B061100EF1FAC0670011E4C70F622BB
:04035900AB07AA063E
:10035D00C3EA648094805010750940EB1B70011A3C
:10036D006303FF6302FF8003E4F509AD03AC02EC08
:10037D001202068F148E138D128C11E4FFFE7DC8B0
:10038D007C40AB14AA13A912A8111200FBE4FBFACE
:10039D00F9783F12000A12023FAA06AB077C277DAF
:1003AD0010AF03AE021202C074272FF58274063E01
:1003BD00F583E493F50A7C277D10AF03AE0212029C
:1003CD00C07E037FE8CFCDCFCECCCE1202C0742736
:1003DD002FF58274063EF583E493F50B7C037DE8DF
:1003ED00AF03AE021202C07E007F64CFCDCFCECC64
:1003FD00CE1202C074272FF58274063EF583E49366
:10040D004480F50C7C007D64AF03AE021202C07E09
:10041D00007F0ACFCDCFCECCCE1202C074272FF5E0
:10042D008274063EF583E493F50DAE02AF037C00B6
:10043D007D0A1202C074272DF58274063CF583E403
:03044D0093F50E16
:010450002289
:1004DD00E4FDEDC3940674809480504AED146014CD
:1004ED0014601914601A14601F1460202405702202
:1004FD00C2A48002D2A4C2A3C2A28016C2A480024A
:10050D00D2A4D2A3C2A2800AC2A48002D2A4C2A342
:10051D00D2A274092DF8E6F5807F647E00120611D3
:06052D00E4F5800D80AC36
:0105330022A5
:0B061C001205FA1203591204DD80F5EC
:100003000202ABE86480F8E933E83360110460F07E
:10001300ED33EC337009E8FCE9FDEAFEEBFF220463
:1000230060DED3EB9FEA9EE99DE8C2E78CF0C2F75E
:1000330095F0400CE8CCF8E9CDF9EACEFAEBCFFB2A
:1000430012027685D0F05804700320D5B3E804700B
:10005300075002B2D50202B592D5EC0460F7E4CCA6
:10006300C0E0C398F8603B94186008400DD0E0FBF3
:1000730002028DE4FBFAC9FC8028E830E406E4C9F7
:10008300FBE4CAFCE830E305E4C9CACBFCE8540747
:100093006010F8C3E913F9EA13FAEB13FBEC13FC52
:1000A300D8F130F52FC3E49CFCEF9BFFEE9AFEEDF5
:1000B30099FDD0E0FBEF4E4D4C701222DB030202A0
:1000C300B2EC2CFCEF33FFEE33FEED33FDED30E706
:1000D300EB02028DEF2BFFEE3AFEED39FDD0E0FB94
:1000E30050130BBB00030202B5ED13FDEE13FEEF3D
:0800F30013FFEC13FC02028D67
:1000FB00EC4D6011E8497017ED33EC3304600DE4FF
:10010B00FCFFFEFD22E933E8330470F80202AB1268
:10011B00027658046009E4CC248150062850090269
:10012B0002B52840030202B2C0E0EB4A7044B9802A
:10013B0006D0E0FB0202A1EF4E701CBD8008EBFF66
:10014B00EAFEE9FD80EBE98DF0A4FEE5F00201E4A7
:10015B00E9CDF9EAFEEBFFEF89F0A4FCE5F0CE89DF
:10016B00F0A42EFFE435F0CD89F0A42DFEE435F09C
:10017B008067EF4E7005BD80D780C3EF8BF0A4ACCA
:10018B00F0EE8BF0A42CFCE435F0F8EF8AF0A42C05
:10019B00E5F038FCE433CB8DF0A42CFCE5F03BF818
:1001AB00EE8AF0A42CFCE5F038F8E433CF89F0A408
:1001BB002CFCE5F038CF3400CE89F0A42FFFE5F00E
:1001CB003EFEE433C98DF0A42EFEE5F039CD8AF066
:1001DB00A42FFFE5F03EFEE43DFD33D0E0FB5007DE
:1001EB000BBB000F0202B5EC2CFCEF33FFEE33FE22
:0601FB00ED33FD02028D50
:1002010075F020800E75F010800575F0087D007E78
:10021100007F003392D530D5031202F6EC33401043
:10022100EF33FFEE33FEED33FDEC33FCD5F0ED2281
:0E023100E5F0247EA2D513CC92E7CDCEFF22BD
:10023F00EDD2E7CD33EC3392D524814006E4FFFEB7
:10024F00FDFC22FCE4CFCECDCC24E0501174FF8016
:10025F00EDC3CC13CCCD13CDCE13CECF13CF0470B3
:07026F00F030D5DE0202F6BB
:10027600E9D2E7C933E833F892D5EDD2E7CD33ECCE
:0702860033FC5002B2D52247
:10028D00EC30E7100FBF000C0EBE00080DBD0004D2
:10029D000BEB6014A2D5EB13FCED92E7FD2274FF7E
:1002AD00FCFDFEFF22E480F8A2D574FF13FC7D80D7
:0302BD00E480EFEB
:10045D0002061CE493A3F8E493A34003F68001F293
:10046D0008DFF48029E493A3F85407240CC8C333A0
:10047D00C4540F4420C8834004F456800146F6DF6F
:10048D00E4800B0102040810204080900641E47EB8
:10049D00019360BCA3FF543F30E509541FFEE49364
:1004AD00A360010ECF54C025E060A840B8E493A32B
:1004BD00FAE493A3F8E493A3C8C582C8CAC583CA56
:1004CD00F0A3C8C582C8CAC583CADFE9DEE780BE0E
:0106440000B5
:1002C000C2D5EC30E709B2D5E4C39DFDE49CFCEE59
:1002D00030E715B2D5E4C39FFFE49EFE120304C3CA
:1002E000E49DFDE49CFC800312030430D507C3E4C5
:0602F0009FFFE49EFE22C8
:0E02F600C3E49FFFE49EFEE49DFDE49CFC2219
:10030400BC000BBE0029EF8DF084FFADF022E4CCDD
:10031400F875F008EF2FFFEE33FEEC33FCEE9DECA6
:10032400984005FCEE9DFE0FD5F0E9E4CEFD22EDEC
:10033400F8F5F0EE8420D21CFEADF075F008EF2F36
:10034400FFED33FD4007985006D5F0F222C398FD27
:050354000FD5F0EA22C4
:00000001FF
